:100000000C9434000C9451000C9451000C94510049
:100010000C9451000C9451000C9451000C9451001C
:100020000C9451000C9451000C9451000C9451000C
:100030000C9451000C9451000C9451000C945100FC
:100040000C9405020C9451000C9451000C94510036
:100050000C9451000C9451000C9451000C945100DC
:100060000C9451000C94510011241FBECFEFD8E026
:10007000DEBFCDBF14E0A0E0B1E0ECECF5E002C0E3
:1000800005900D92A438B107D9F714E0A4E8B4E0C4
:1000900001C01D92A53BB107E1F70E946B010C94D2
:1000A000E4020C940000AF92BF92CF92DF92FF92D5
:1000B0000F931F93CF93DF936C011092B404E091E0
:1000C000AD04F0E0E258FB4F7083603308F062C08B
:1000D000E091AD04F0E0E458FB4F1082E091AD04F4
:1000E000F0E0262F30E08BE390E0821B930B6CE076
:1000F00070E00E94D102EC57FB4F6083E091AD04A9
:10010000F0E020503F4FD9018C91E658FB4F80839F
:10011000E091AD04F0E0E658FB4FE08100E010E034
:100120002091AD04E091AD04F0E0E658FB4F608112
:1001300070E06F5F7F4F80E0902F0E94BD02FB0157
:10014000E658FE4F808190E0AC014C9DC0014D9D72
:10015000900D5C9D900D1124322F20E0F901E00FED
:10016000F11FE658FD4F90830F5F1F4FE091AD04E4
:10017000F0E0E658FB4F808190E08017910780F611
:10018000DF91CF911F910F91FF90DF90CF90BF90A3
:10019000AF900895E091AD04F0E0E458FB4F81E0AA
:1001A0008083E091AD04F0E0262F30E0C901C097D4
:1001B0006CE070E00E94D102EC57FB4F6083E0914D
:1001C000AD04F0E020503F4FD9018C91E658FB4F31
:1001D0008083E091AD04F0E0E658FB4FE081C0E0A1
:1001E000D0E088E0A82EB12CE091AD04F0E0E65814
:1001F000FB4F6081E091AD04F0E0EC57FB4F0081D4
:10020000E091AD04F0E0E658FB4F2081E091AD04B1
:10021000F0E0EC57FB4F1081F090AD04E091AD049D
:10022000F0E0EC57FB4F408170E06F5F7F4F80E064
:100230009C2F0E94BD02E62FF0E030E02F5F3F4F81
:10024000CE0102C0880F991F0A95E2F7B9010E94FA
:10025000BD02C501811B910902C0660F771F8A95F7
:10026000E2F7E61BF10902C0EE0FFF1F4A95E2F725
:10027000E658FE4F808190E09C012C9DC0012D9D91
:10028000900D3C9D900D11243F2D20E0F901EC0FC5
:10029000FD1FE658FD4F90832196E091AD04F0E0FC
:1002A000E658FB4F808190E08C179D0708F09CCFAB
:1002B00067CF80E48AB984B5836084BD84B58068E3
:1002C00084BDEEE6F0E080818160808317BC85B557
:1002D000816085BD08951F9381E692E0909381042B
:1002E00080938004909383048093820487E08093BA
:1002F000AF0483E0809388049FE1909389042FE703
:1003000030E030938B0420938A048FE080938C0438
:1003100090938D0430938F0420938E048BE180930F
:10032000900490939104309393042093920487E275
:1003300080939404909395043093970420939604AB
:1003400083E3809398049093990430939B042093C3
:100350009A048FE380939C0490939D0430939F04B0
:1003600020939E048BE48093A0049093A104309387
:10037000A3042093A20487E58093A4049093A5048A
:100380003093A7042093A60411E0109387041092E1
:10039000AD04609188047091890480918A049091E1
:1003A0008B040E945300109287041093AD041092A6
:1003B000A9041093B4048FE78093AA041092A804B0
:1003C0001092AE041092AC041092AB04109286040A
:1003D00078940E9459018091B4048130E1F7E12FB3
:1003E000F0E0EE0FFF1FEE0FFF1FE857FB4F60819D
:1003F0007181828193810E9453008091AF0418170C
:1004000010F010E0E8CF1F5FE6CF1F920F920FB6FB
:100410000F9211242F933F934F938F939F93EF93BA
:10042000FF938091AA0487BD809187049091A804CE
:10043000F82FE0E0E90FF11DE658FD4F8081809331
:10044000AA04E0918704F0E0E458FB4F80818130FA
:1004500009F46BC02091AE04E0918704F0E0EC5702
:10046000FB4F408130E081E090E002C0880F991F8F
:100470004A95E2F70197281739070CF054C080918C
:10048000AE048F5F8093AE04E0918704F0E0EE0F3E
:10049000FF1FE058FB4F208131818091AB04909188
:1004A000AC048217930708F453C01092AC04109266
:1004B000AB04E0918704F0E0E258FB4F908180911B
:1004C0008604891708F44EC01092860481E0809358
:1004D000A9048091A9048823D1F01092A9048FE780
:1004E0008093AA041092A8041092AC041092AB045A
:1004F000109286041092AE0491E09093B40480911F
:1005000087048130A9F1909387041092AD04FF9184
:10051000EF919F918F914F913F912F910F900FBE2F
:100520000F901F9018951092AE04E0918704F0E0B0
:10053000E658FB4F90818091A804891718F010921B
:10054000A804A2CF8091A8048F5F8093A8049CCFB9
:100550008091AB049091AC0401969093AC0480938D
:10056000AB04B7CF809186048F5F80938604B1CFB0
:10057000109287048093AD04CACFAA1BBB1B51E124
:1005800007C0AA1FBB1FA617B70710F0A61BB70B03
:10059000881F991F5A95A9F780959095BC01CD01A8
:1005A000089597FB092E07260AD077FD04D0E5DFD2
:1005B00006D000201AF4709561957F4F0895F6F7E4
:0C05C000909581959F4F0895F894FFCF0F
:1005CC00FAECDFD2C6BBB1A79D948C84FAECDFD2D7
:1005DC00C6BBB1A79D948C84FAECDFD2C6BBB1A785
:1005EC009D948C84FAECDFD2C6BBB1A79D948C840D
:1005FC00FAECDFD2C6BBB1A79D948C84FAECDFD2A7
:10060C00C6BBB1A79D948C84FAECDFD2C6BBB1A754
:10061C009D948C84FAECDFD2C6BBB1A79D948C84DC
:10062C00FAECDFD2C6BBB1A79D948C84FAECDFD276
:10063C00C6BBB1A79D948C84FAEC7F8386898C8F82
:10064C009295989B9EA2A5A7AAADB0B3B6B9BCBE15
:10065C00C1C4C6C9CBCED0D3D5D7DADCDEE0E2E458
:10066C00E6E8EAEBEDEEF0F1F3F4F5F6F8F9FAFA68
:10067C00FBFCFDFDFEFEFEFFFFFFFFFFFFFFFEFE8E
:10068C00FEFDFDFCFBFAFAF9F8F6F5F4F3F1F0EEE9
:10069C00EDEBEAE8E6E4E2E0DEDCDAD7D5D3D0CE67
:1006AC00CBC9C6C4C1BEBCB9B6B3B0ADAAA7A5A2CE
:1006BC009E9B9895928F8C8986837F7C79767370BC
:1006CC006D6A6764615D5A5855524F4C49464341B7
:1006DC003E3B393634312F2C2A282523211F1D1B54
:1006EC001917151412110F0E0C0B0A090706050524
:1006FC0004030202010101000000000000000101DE
:10070C00010202030405050607090A0B0C0E0F1162
:10071C0012141517191B1D1F212325282A2C2F31C4
:10072C003436393B3E414346494C4F5255585A5D3D
:10073C006164676A6D707376797C7F8386898C8F30
:10074C009295989B9EA2A5A7AAADB0B3B6B9BCBE14
:10075C00C1C4C6C9CBCED0D3D5D7DADCDEE0E2E457
:10076C00E6E8EAEBEDEEF0F1F3F4F5F6F8F9FAFA67
:10077C00FBFCFDFDFEFEFEFFFFFFFFFFFFFFFEFE8D
:10078C00FEFDFDFCFBFAFAF9F8F6F5F4F3F1F0EEE8
:10079C00EDEBEAE8E6E4E2E0DEDCDAD7D5D3D0CE66
:1007AC00CBC9C6C4C1BEBCB9B6B3B0ADAAA7A5A2CD
:1007BC009E9B9895928F8C8986837F7C79767370BB
:1007CC006D6A6764615D5A5855524F4C49464341B6
:1007DC003E3B393634312F2C2A282523211F1D1B53
:1007EC001917151412110F0E0C0B0A090706050523
:1007FC0004030202010101000000000000000101DD
:10080C00010202030405050607090A0B0C0E0F1161
:10081C0012141517191B1D1F212325282A2C2F31C3
:10082C003436393B3E414346494C4F5255585A5D3C
:10083C006164676A6D707376797C7F8386898C8F2F
:10084C009295989B9EA2A5A7AAADB0B3B6B9BCBE13
:10085C00C1C4C6C9CBCED0D3D5D7DADCDEE0E2E456
:10086C00E6E8EAEBEDEEF0F1F3F4F5F6F8F9FAFA66
:10087C00FBFCFDFDFEFEFEFFFFFFFFFFFFFFFEFE8C
:10088C00FEFDFDFCFBFAFAF9F8F6F5F4F3F1F0EEE7
:10089C00EDEBEAE8E6E4E2E0DEDCDAD7D5D3D0CE65
:1008AC00CBC9C6C4C1BEBCB9B6B3B0ADAAA7A5A2CC
:1008BC009E9B9895928F8C8986837F7C79767370BA
:1008CC006D6A6764615D5A5855524F4C49464341B5
:1008DC003E3B393634312F2C2A282523211F1D1B52
:1008EC001917151412110F0E0C0B0A090706050522
:1008FC0004030202010101000000000000000101DC
:10090C00010202030405050607090A0B0C0E0F1160
:10091C0012141517191B1D1F212325282A2C2F31C2
:10092C003436393B3E414346494C4F5255585A5D3B
:10093C006164676A6D707376797CFFFF01011F1F1C
:04094C003001300145
:00000001FF
