:100000000C9434000C9451000C9451000C94510049
:100010000C9451000C9451000C9451000C9451001C
:100020000C9451000C9451000C9451000C9451000C
:100030000C9451000C9451000C9451000C945100FC
:100040000C9451000C9451000C9451000C945100EC
:100050000C9451000C9451000C9451000C945100DC
:100060000C9451000C94510011241FBECFEFD8E026
:10007000DEBFCDBF11E0A0E0B1E0EEE9F9E002C0E3
:1000800005900D92AA31B107D9F711E0AAE1B1E0CC
:1000900001C01D92A732B107E1F70E9453000C94F2
:1000A000CD040C9400000E9475000E9489000E94FB
:1000B00026010E94A70180911C0190911D018130B1
:1000C000910521F080E090E0DC0104C080E09FEF2A
:1000D000A0E0B0E020911E0130911F0121303105D8
:1000E00009F48F6F0E943601E4CFE1ECF0E08081EB
:1000F00088618083A2ECB0E08C9186608C93109232
:10010000C5008AE08093C4008081806880837894F1
:100110000895E0EBF0E08081826080838BE980933A
:10012000B300E1EBF0E0808185608083089532E0E8
:1001300007C023B5206823BDB99BFECF37BB01970D
:100140000097B9F70895CF93DF93EC010AC090911F
:10015000C00095FFFCCF8093C60081E090E00E9434
:1001600097008991882399F7DF91CF910895EF92B5
:10017000FF920F931F93DF93CF93CDB7DEB7C2509B
:10018000D2400FB6F894DEBF0FBECDBF7A012DB7B7
:100190003EB7285030400FB6F8943EBF0FBE2DBF7B
:1001A000EDB7FEB731969E012C5F3F4FADB7BEB79E
:1001B00012963C932E93119721E031E033832283F2
:1001C00095838483778366830E94EC01DE01119618
:1001D000E6E1F1E083E001900D928150E1F700D07B
:1001E000EDB7FEB731968E01015F1F4FADB7BEB7B9
:1001F00012961C930E9311978FE091E09383828364
:10020000CE01049695838483F782E682CE0101961F
:10021000918780870E94EC012DB73EB7265F3F4F44
:100220000FB6F8943EBF0FBE2DBFC8010E94A300B9
:10023000CE5FDD4F0FB6F894DEBF0FBECDBFCF91BE
:10024000DF911F910F91FF90EF90089581E084B9A5
:1002500017B88CEF8AB915B81BB810922401109208
:10026000250110921B0110921A010895EF92FF923E
:100270001F93CF93DF93FC0133E0F595E7953A9513
:10028000E1F71092260181E090E056C0B0E09D01B8
:100290002E5F3F4F7C0102C0EE0CFF1C2A95E2F757
:1002A0001E2D1095209125012C611223AA0FBB1F32
:1002B000AA0FBB1FAD0125E030E0BC01042E02C037
:1002C000660F771F0A94E2F76E237F23EC01022E5C
:1002D00002C0CC0FDD1F0A94E2F71616170614F4BD
:1002E0001C2B03C07E01E0941E214F5F5F4F2F5FE8
:1002F0003F4F2830310509F71093250113969C01D3
:1003000002C0220F331FAA95E2F72E233F2340910C
:1003100024011216130614F4416001C04E7F40936D
:1003200024012091240125B9209125012BB9209188
:1003300026012F5F20932601A0912601A33008F407
:10034000A5CFDF91CF911F91FF90EF900895309945
:100350001FC0809120019091210123E0883E9207E7
:1003600034F40196909321018093200115C080916F
:100370001C0190911D018130910519F482E090E0FB
:1003800002C081E090E090931D0180931C0104C0A5
:100390001092210110922001319915C08091220103
:1003A0009091230123E0883E920734F401969093C4
:1003B000230180932201089581E090E090931F0132
:1003C00080931E01089510921F0110921E01109239
:1003D0002301109222010895AEE0B0E0E2EFF1E0D7
:1003E0000C94A4040D891E8986E08C831A830983EA
:1003F0008FEF9FE79E838D839E01275E3F4FCE0147
:1004000001966F89788DA9010E940F02EF81F8850E
:10041000E00FF11F10822E96E4E00C94C004ACE0D3
:10042000B0E0E5E1F2E00C9496046C011B018A0156
:10043000FC0117821682838181FFD1C12E010894AD
:10044000411C511CF6019381F10193FD859193FFAD
:1004500081911F01882309F4BEC1853239F493FDCF
:10046000859193FF81911F01853229F490E0B601B7
:100470000E940C04E7CFEE24FF2420E02032B0F4E9
:100480008B3269F08C3228F4803251F0833271F46F
:100490000BC08D3239F0803349F421602CC02260CA
:1004A000246029C0286027C0206125C027FD2CC0FA
:1004B000382F30533A3098F426FF08C08E2D880F1D
:1004C000E82EEE0CEE0CE80EE30E15C08F2D880F13
:1004D000F82EFF0CFF0CF80EF30E20620CC08E32CB
:1004E00021F426FD78C1206406C08C3611F4206802
:1004F00002C0883649F4F10193FD859193FF819103
:100500001F01882309F0BACF982F9554933018F023
:100510009052933028F40C5F1F4FFFE3F9830DC016
:10052000833631F0833771F0833509F060C022C023
:10053000F801808189830E5F1F4F420171E0A72E71
:10054000B12C16C062E0662E712C600E711EF8018F
:100550008080918026FF03C06E2D70E002C06FEF97
:100560007FEFC4012C870E9401045C0183012C856C
:100570002F7717C052E0652E712C600E711EF801A6
:100580008080918026FF03C06E2D70E002C06FEF67
:100590007FEFC4012C870E94F6035C012C85206844
:1005A000830123FD20C008C080E290E0B6012C87C3
:1005B0000E940C04FA942C858F2D90E0A816B906A1
:1005C00098F311C0F40127FD859127FF81914F0118
:1005D00090E0B6012C870E940C042C85F110FA944F
:1005E0000894A108B108A114B10461F7F1C08436E0
:1005F00011F0893649F527FF08C0F8016081718143
:10060000828193810C5F1F4F09C0F8016081718165
:10061000882777FD8095982F0E5F1F4F4FE6B42EE9
:10062000B22297FF09C090958095709561957F4F94
:100630008F4F9F4FF0E8BF2AA2012AE030E00E94CE
:100640003804782E741845C0853731F43FEEB32E48
:10065000B2222AE030E025C099EFB92EB2228F36BF
:10066000C1F0803720F4883509F0B5C00DC080375F
:1006700021F0883709F0AFC002C020E1B22AB4FEF1
:100680000BC084E0B82A08C0B4FE09C0E6E0BE2A68
:1006900006C028E030E005C020E130E002C020E1E3
:1006A00032E0B7FE08C0F8016081718182819381D8
:1006B0000C5F1F4F07C0F8016081718180E090E0FE
:1006C0000E5F1F4FA2010E943804782E7418FFE7B6
:1006D000BF22B6FE0BC02EEFB2227E1438F4B4FE59
:1006E00007C0B2FC05C08FEEB82202C0A72C01C023
:1006F000AE2C8B2D90E0B4FE0DC0FE01E70DF11D78
:100700002081203319F4E9EEBE2209C0A394B2FE81
:1007100006C004C086789070009709F0A3948B2CD3
:100720009924B3FC14C0B0FE0FC0AF1428F4E72C1A
:10073000EF0CEA18AF2C08C0E72C06C080E290E06E
:10074000B6010E940C04A394AF14C0F304C0AF140C
:1007500010F4FA1801C0FF2484FE0FC080E390E07B
:10076000B6010E940C0482FE1FC081FE03C088E512
:1007700090E010C088E790E00DC0C40186789070CA
:10078000009791F081FC02C080E201C08BE2B7FCCF
:100790008DE290E0B6010E940C0406C080E390E078
:1007A000B6010E940C04EA947E14C0F37A94F2011C
:1007B000E70DF11D808190E0B6010E940C047720C6
:1007C000A9F706C080E290E0B6010E940C04FA94FA
:1007D000FF20C1F737CEF6012681378102C02FEF07
:1007E0003FEFC9012C96E2E10C94B204FC010590A4
:1007F000615070400110D8F7809590958E0F9F1F23
:100800000895FC016150704001900110D8F7809567
:1008100090958E0F9F1F08950F931F93CF93DF9393
:100820008C01EB018B8181FF1BC082FF0DC02E81EB
:100830003F818C819D812817390764F4E881F98113
:100840000193F983E88306C0E885F985802F09952F
:10085000009731F48E819F8101969F838E8302C021
:100860000FEF1FEFC801DF91CF911F910F910895F6
:10087000FA01AA27283051F1203181F1E8946F93D1
:100880006E7F6E5F7F4F8F4F9F4FAF4FB1E03ED077
:10089000B4E03CD0670F781F891F9A1FA11D680F15
:1008A000791F8A1F911DA11D6A0F711D811D911D48
:1008B000A11D20D009F468943F912AE0269F1124BD
:1008C0003019305D3193DEF6CF010895462F477021
:1008D000405D4193B3E00FD0C9F7F6CF462F4F707C
:1008E000405D4A3318F0495D31FD4052419302D0DA
:1008F000A9F7EACFB4E0A695979587957795679580
:10090000BA95C9F700976105710508959B01AC017F
:100910000A2E06945795479537952795BA95C9F7A6
:10092000620F731F841F951FA01D08952F923F9281
:100930004F925F926F927F928F929F92AF92BF92EF
:10094000CF92DF92EF92FF920F931F93CF93DF939B
:10095000CDB7DEB7CA1BDB0B0FB6F894DEBF0FBEF8
:10096000CDBF09942A88398848885F846E847D8445
:100970008C849B84AA84B984C884DF80EE80FD8047
:100980000C811B81AA81B981CE0FD11D0FB6F894BD
:0E099000DEBF0FBECDBFED010895F894FFCF7E
:10099E00107374252330346472252330346400259B
:0A09AE00732573257300650A00002D
:00000001FF
