:100000000C9434000C9451000C9451000C94510049
:100010000C9451000C9451000C9451000C9441022A
:100020000C9451000C9451000C9451000C9451000C
:100030000C9451000C9451000C94F9010C94510053
:100040000C9451000C9451000C9451000C945100EC
:100050000C9451000C9451000C9451000C945100DC
:100060000C9451000C94510011241FBECFEFD8E026
:10007000DEBFCDBF11E0A0E0B1E0ECE0F6E002C0F1
:1000800005900D92A230B107D9F711E0A2E0B1E0DE
:1000900001C01D92A132B107E1F70E9453000C94F8
:1000A00004030C9400000F931F93CF93DF931092DF
:1000B0001601109215011092140110921A0110925B
:1000C0001F0180910F01909110019093180180936E
:1000D000170180910F019091100190931C01809362
:1000E0001B0180910E018093200110921D0110923E
:1000F000190110921E0178940E942E010E948E0216
:10010000C1E0D0E04091170150911801A0911F016A
:10011000F0911A01809115019091160120911B0117
:1001200030911C0100912001B0911D011091190125
:10013000E0911E0160910F01709110014617570761
:1001400029F040910F0150911001AF5FAA3058F093
:10015000FF5FF23028F080E090E0F0E0A0E005C022
:1001600080E090E0A0E0FF2389F460910F0170919E
:1001700010012617370749F120910F013091100126
:1001800080910F019091100193701FC0F130E9F43C
:1001900060910E01061719F000910E01BF5FBA3091
:1001A000A0F0112331F4EF5FEA3038F0E8E011E01D
:1001B00004C0E15010F4E1E010E0CE010E2E02C0C8
:1001C000880F991F0A94E2F7B0E0609111016A313B
:1001D00008F4B0CF5093180140931701A0931F016A
:1001E000F0931A01909316018093150130931C012E
:1001F00020931B0100932001B0931D01109319015E
:10020000E0931E0180911101895180931101809129
:100210001401833010F01092140180911501909117
:100220001601609114010E949602809114018F5F63
:100230008093140167CF809104018068809304014A
:1002400084B5826084BDEEE6F0E0808182608083C8
:1002500089EF87BD85B5826085BD089580910C01C9
:10026000806880930C01E0EBF0E080818260808305
:10027000E0E7F0E080818260808389EF8093B300C3
:10028000E1EBF0E0808182608083089594B5926014
:1002900094BD85FF07C090916E00926090936E00B0
:1002A0008F7705C090916E009D7F90936E0067BD23
:1002B000282F84FF04C090916E00946003C0909139
:1002C0006E009B7F90936E0048BD23FD07C095B5DF
:1002D000987F95BD95B58770892B85BD08959091C0
:1002E0008100986090938100982F85FF04C0209131
:1002F0006F00226003C020916F002D7F20936F005C
:10030000709389006093880094FF04C020916F006F
:10031000246003C020916F002B7F20936F005093C7
:100320008B0040938A0093FD0BC090918100987FD1
:1003300090938100909181008770892B8093810038
:1003400008959091B00092609093B00085FF07C02F
:10035000909170009260909370008F7705C090919B
:1003600070009D7F909370006093B300282F84FFEE
:1003700004C090917000946003C0909170009B7FC6
:10038000909370004093B40023FD0BC09091B10096
:10039000987F9093B1009091B1008770892B8093E2
:1003A000B10008951092040114BC15BC17BC18BC10
:1003B00010926E00089510928000109281001092A9
:1003C0008200109289001092880010928B00109287
:1003D0008A0010926F00089510920C011092B000E4
:1003E0001092B1001092B3001092B40010927000FD
:1003F00008951F920F920FB60F9211242F938F938F
:100400009F938091040187FF34C080910D018F5F1D
:1004100080930D0180910D01843658F110920D01E9
:1004200080910E018F5F80930E0180910E018436C2
:1004300000F110920E0180910F0190911001019630
:100440009093100180930F0180910F019091100102
:1004500028EA803C920768F01092100110920F0178
:100460008091000190910101019690930101809388
:1004700000019F918F912F910F900FBE0F901F90B1
:1004800018951F920F920FB60F9211242F938F93EE
:100490009F9380910C0187FF39C080910D018F5F80
:1004A00080930D01809111018F5F809311018091E4
:1004B0000D01843658F110920D0180910E018F5F6D
:1004C00080930E0180910E01843600F110920E018E
:1004D00080910F01909110010196909310018093EB
:1004E0000F0180910F019091100128EA803C920742
:1004F00068F01092100110920F018091000190910C
:100500000101019690930101809300019F918F91C9
:100510002F910F900FBE0F901F90189581E084B916
:1005200017B88CEF8AB915B81BB8089570E0AB0105
:100530004E5F5F4F21E030E0F90102C0EE0FFF1F78
:100540004A95E2F7AF014095509113015C61452354
:10055000660F771F660F771F062E02C0220F331F0C
:100560000A94E2F7282339232115310511F040625E
:1005700001C04F7D40931301AB014F5F5F4F21E0FE
:1005800030E002C0220F331F4A95E2F728233923B7
:10059000409113012115310511F0406401C04F7BDA
:1005A00040931301AB014E5F5F4F21E030E002C08A
:1005B000220F331F4A95E2F7282339234091130174
:1005C0002115310511F0406801C04F7740931301A8
:1005D0006D5F7F4F21E030E002C0220F331F6A952C
:1005E000E2F728233923809112012115310511F0FA
:1005F000816001C08E7F809312018091120185B9C4
:0C060000809113018BB90895F894FFCF8E
:02060C00302399
:00000001FF
