:100000000C9434000C9451000C9451000C94510049
:100010000C9451000C9451000C9451000C9451001C
:100020000C9451000C9451000C9451000C9451000C
:100030000C9451000C9451000C9451000C945100FC
:100040000C9412020C9451000C9451000C94510029
:100050000C9451000C9451000C9451000C945100DC
:100060000C9451000C94510011241FBECFEFD8E026
:10007000DEBFCDBF14E0A0E0B1E0ECEAF5E002C0E5
:1000800005900D92A438B107D9F714E0A4E8B4E0C4
:1000900001C01D92A23BB107E1F70E9481010C94BF
:1000A000D4020C9400008F929F92AF92BF92CF9295
:1000B000DF92EF92FF920F931F93DF93CF9300D0C5
:1000C00000D00F92CDB7DEB7242F49835A836B83BC
:1000D0007C838D83AC80BD801092B104E091A50437
:1000E000F0E0E258FB4F5083403308F067C0E091E6
:1000F000A504F0E0E458FB4F1082E091A504F0E085
:1001000030E08FE290E0821B930B6CE070E00E9485
:10011000C102EA55FB4F6083E091A504F0E0205056
:100120003F4FD9018C91E658FB4F8083E091A504A5
:10013000F0E0E658FB4F8081882371F100E0202F2A
:1001400030E04091A504E091A504F0E0E658FB4FB3
:10015000608180E0902F70E00E94AD02FB01E658C4
:10016000FE4F808190E0FC01EA9DC001EB9D900D67
:10017000FA9D900D1124542F40E0240F351F26586E
:100180003D4FD9019C930F5FE091A504F0E0E65844
:10019000FB4F8081081798F20F900F900F900F90EF
:1001A0000F90CF91DF911F910F91FF90EF90DF9013
:1001B000CF90BF90AF909F908F900895E091A5044D
:1001C000F0E0E458FB4F81E08083E091A504F0E08B
:1001D00030E0C90184976CE070E00E94C102EA55EA
:1001E000FB4F6083E091A504F0E020503F4FD90120
:1001F0008C91E658FB4F8083E091A504F0E0EA552E
:10020000FB4F2081E091A504F0E0E658FB4F808190
:10021000882311F281E090E002C0880F991F2A958F
:10022000E2F7C82EDD24EE2488E0882E912C0E2DD6
:1002300010E0E091A504F0E0E658FB4F6081E0910A
:10024000A504F0E0E658FB4F4081E091A504F0E002
:10025000EA55FB4FE081F090A50480E09E2D70E010
:100260000E94AD02262F30E00C9DC0010D9D900D27
:100270001C9D900D1124642F70E00E94AD02C401FA
:100280008E1B910902C0660F771F8A95E2F7261B25
:1002900031092C9DF0012D9DF00D3C9DF00D112498
:1002A000E658FE4F808190E0FC01EA9DC001EB9D85
:1002B000900DFA9D900D11243F2D20E0020F131F89
:1002C00006581D4FD8019C93E394E091A504F0E0FB
:1002D000E658FB4F8081E81608F4A9CF5DCF80E493
:1002E0008AB984B5836084BD84B5806884BDEEE638
:1002F000F0E080818160808317BC85B5816085BD19
:1003000008951F9381E391E090938104809380048A
:10031000909383048093820486E08093A90487E20B
:100320008093860480E490E0582F90938804809313
:1003300087042FE730E0722F30938A0420938904DA
:100340004AE240938B0490938D0480938C04309305
:100350008F0420938E044DE2409390049093920476
:1003600080939104309394042093930440E340934A
:100370009504909397048093960430939904209366
:10038000980443E340939A0490939C0480939B04C5
:1003900030939E0420939D0446E340939F049093E2
:1003A000A1048093A0043093A3042093A20410928C
:1003B000850481E08093A50447E2609188048091E0
:1003C0008A040E94530078940E946F0181E0809318
:1003D000B10410E08091B1048130E1F71092A404DF
:1003E0001092A8041092B0041092AF0410928404EA
:1003F000812F90E0FC01EE0FFF1FEE0FFF1FE80FB3
:10040000F91FEA57FB4F40815181628173818481DA
:100410000E9453008091A904811711F410E0DACFF3
:100420001F5FD8CF1F920F920FB60F9211242F93F8
:100430003F934F938F939F93EF93FF93E0918504A6
:10044000F0E0E458FB4F80818823E1F42091A80478
:10045000E0918504F0E0EA55FB4F408130E081E017
:1004600090E002C0880F991F4A95E2F7019728177C
:10047000390731F08091A8048F5F8093A8041DC0D4
:100480001092A804809185049091A404F82FE0E0D4
:10049000E90FF11DE658FD4F808187BDE09185048D
:1004A000F0E0E658FB4F90818091A404981751F139
:1004B0008091A4048F5F8093A404E0918504F0E010
:1004C000EE0FFF1FE058FB4F208131818091AF0478
:1004D0009091B00428173907C1F08091AF04909132
:1004E000B00401969093B0048093AF04FF91EF9114
:1004F0009F918F914F913F912F910F900FBE0F9031
:100500001F9018951092A404D8CF1092B0041092A6
:10051000AF04E0918504F0E0E258FB4F90818091B8
:100520008404981731F0809184048F5F8093840451
:10053000DDCF1092840480918504813049F081E000
:10054000809385041092A50481E08093B104CECFFE
:10055000109285048093A504F7CFAA1BBB1B51E121
:1005600007C0AA1FBB1FA617B70710F0A61BB70B23
:10057000881F991F5A95A9F780959095BC01CD01C8
:10058000089597FB092E07260AD077FD04D0E5DFF2
:1005900006D000201AF4709561957F4F0895F6F704
:0C05A000909581959F4F0895F894FFCF2F
:1005AC00FBEDE0D3C7BCB2A89E958D85FBEDE0D3E7
:1005BC00C7BCB2A89E958D85FBEDE0D3C7BCB2A895
:1005CC009E958D85FBEDE0D3C7BCB2A89E958D851D
:1005DC00FBEDE0D3C7BCB2A89E958D85FBEDE0D3B7
:1005EC00C7BCB2A89E958D85FBEDE0D3C7BCB2A865
:1005FC009E958D85FBEDE0D3C7BCB2A89E958D85ED
:10060C00FBEDE0D3C7BCB2A89E958D85FBEDE0D386
:10061C00C7BCB2A89E958D85FBED7F8386898C8F98
:10062C009295989B9EA2A5A7AAADB0B3B6B9BCBE35
:10063C00C1C4C6C9CBCED0D3D5D7DADCDEE0E2E478
:10064C00E6E8EAEBEDEEF0F1F3F4F5F6F8F9FAFA88
:10065C00FBFCFDFDFEFEFEFFFFFFFFFFFFFFFEFEAE
:10066C00FEFDFDFCFBFAFAF9F8F6F5F4F3F1F0EE09
:10067C00EDEBEAE8E6E4E2E0DEDCDAD7D5D3D0CE87
:10068C00CBC9C6C4C1BEBCB9B6B3B0ADAAA7A5A2EE
:10069C009E9B9895928F8C8986837F7C79767370DC
:1006AC006D6A6764615D5A5855524F4C49464341D7
:1006BC003E3B393634312F2C2A282523211F1D1B74
:1006CC001917151412110F0E0C0B0A090706050544
:1006DC0004030202010101000000000000000101FE
:1006EC00010202030405050607090A0B0C0E0F1183
:1006FC0012141517191B1D1F212325282A2C2F31E5
:10070C003436393B3E414346494C4F5255585A5D5D
:10071C006164676A6D707376797C7F8386898C8F50
:10072C009295989B9EA2A5A7AAADB0B3B6B9BCBE34
:10073C00C1C4C6C9CBCED0D3D5D7DADCDEE0E2E477
:10074C00E6E8EAEBEDEEF0F1F3F4F5F6F8F9FAFA87
:10075C00FBFCFDFDFEFEFEFFFFFFFFFFFFFFFEFEAD
:10076C00FEFDFDFCFBFAFAF9F8F6F5F4F3F1F0EE08
:10077C00EDEBEAE8E6E4E2E0DEDCDAD7D5D3D0CE86
:10078C00CBC9C6C4C1BEBCB9B6B3B0ADAAA7A5A2ED
:10079C009E9B9895928F8C8986837F7C79767370DB
:1007AC006D6A6764615D5A5855524F4C49464341D6
:1007BC003E3B393634312F2C2A282523211F1D1B73
:1007CC001917151412110F0E0C0B0A090706050543
:1007DC0004030202010101000000000000000101FD
:1007EC00010202030405050607090A0B0C0E0F1182
:1007FC0012141517191B1D1F212325282A2C2F31E4
:10080C003436393B3E414346494C4F5255585A5D5C
:10081C006164676A6D707376797C7F8386898C8F4F
:10082C009295989B9EA2A5A7AAADB0B3B6B9BCBE33
:10083C00C1C4C6C9CBCED0D3D5D7DADCDEE0E2E476
:10084C00E6E8EAEBEDEEF0F1F3F4F5F6F8F9FAFA86
:10085C00FBFCFDFDFEFEFEFFFFFFFFFFFFFFFEFEAC
:10086C00FEFDFDFCFBFAFAF9F8F6F5F4F3F1F0EE07
:10087C00EDEBEAE8E6E4E2E0DEDCDAD7D5D3D0CE85
:10088C00CBC9C6C4C1BEBCB9B6B3B0ADAAA7A5A2EC
:10089C009E9B9895928F8C8986837F7C79767370DA
:1008AC006D6A6764615D5A5855524F4C49464341D5
:1008BC003E3B393634312F2C2A282523211F1D1B72
:1008CC001917151412110F0E0C0B0A090706050542
:1008DC0004030202010101000000000000000101FC
:1008EC00010202030405050607090A0B0C0E0F1181
:1008FC0012141517191B1D1F212325282A2C2F31E3
:10090C003436393B3E414346494C4F5255585A5D5B
:10091C006164676A6D707376797CFFFF01013F3FFC
:04092C003101310163
:00000001FF
